{
  "contractName": "DexSwapArbitrage",
  "abi": [
    {
      "inputs": [
        {
          "internalType": "address",
          "name": "_factory",
          "type": "address"
        },
        {
          "internalType": "address",
          "name": "_dexSwapRoute",
          "type": "address"
        }
      ],
      "stateMutability": "nonpayable",
      "type": "constructor"
    },
    {
      "inputs": [],
      "name": "dexSwapRoute",
      "outputs": [
        {
          "internalType": "contract IDexSwapRouter",
          "name": "",
          "type": "address"
        }
      ],
      "stateMutability": "view",
      "type": "function"
    },
    {
      "inputs": [],
      "name": "factory",
      "outputs": [
        {
          "internalType": "address",
          "name": "",
          "type": "address"
        }
      ],
      "stateMutability": "view",
      "type": "function"
    },
    {
      "inputs": [
        {
          "internalType": "address",
          "name": "token0",
          "type": "address"
        },
        {
          "internalType": "address",
          "name": "token1",
          "type": "address"
        },
        {
          "internalType": "uint256",
          "name": "amount0",
          "type": "uint256"
        },
        {
          "internalType": "uint256",
          "name": "amount1",
          "type": "uint256"
        }
      ],
      "name": "startDexSwapArbitrage",
      "outputs": [],
      "stateMutability": "nonpayable",
      "type": "function"
    },
    {
      "inputs": [
        {
          "internalType": "address",
          "name": "_sender",
          "type": "address"
        },
        {
          "internalType": "uint256",
          "name": "_amount0",
          "type": "uint256"
        },
        {
          "internalType": "uint256",
          "name": "_amount1",
          "type": "uint256"
        },
        {
          "internalType": "bytes",
          "name": "_data",
          "type": "bytes"
        }
      ],
      "name": "uniswapV2Call",
      "outputs": [],
      "stateMutability": "nonpayable",
      "type": "function"
    }
  ],
  "bytecode": "0x608060405234801561001057600080fd5b5060405161104a38038061104a8339818101604052604081101561003357600080fd5b508051602090910151600080546001600160a01b039384166001600160a01b03199182161790915560018054939092169216919091179055610fd08061007a6000396000f3fe608060405234801561001057600080fd5b506004361061004c5760003560e01c806310d1e85c1461005157806332fd129f146100df578063c45a01551461011b578063f7ee80851461013f575b600080fd5b6100dd6004803603608081101561006757600080fd5b6001600160a01b03823516916020810135916040820135919081019060808101606082013564010000000081111561009e57600080fd5b8201836020820111156100b057600080fd5b803590602001918460018302840111640100000000831117156100d257600080fd5b509092509050610147565b005b6100dd600480360360808110156100f557600080fd5b506001600160a01b038135811691602081013590911690604081013590606001356106bc565b6101236108a4565b604080516001600160a01b039092168252519081900360200190f35b6101236108b3565b6040805160028082526060808301845292602083019080368337019050509050600085156101755785610177565b845b90506000336001600160a01b0316630dfe16816040518163ffffffff1660e01b815260040160206040518083038186803b1580156101b457600080fd5b505afa1580156101c8573d6000803e3d6000fd5b505050506040513d60208110156101de57600080fd5b50516040805163d21220a760e01b81529051919250600091339163d21220a7916004808301926020929190829003018186803b15801561021d57600080fd5b505afa158015610231573d6000803e3d6000fd5b505050506040513d602081101561024757600080fd5b5051600054909150610263906001600160a01b031683836108c2565b6001600160a01b0316336001600160a01b0316146102b7576040805162461bcd60e51b815260206004820152600c60248201526b155b985d5d1a1bdc9a5e995960a21b604482015290519081900360640190fd5b8715806102c2575086155b6102cb57600080fd5b87156102d757816102d9565b805b846000815181106102e657fe5b6001600160a01b0390921660209283029190910190910152871561030a578061030c565b815b8460018151811061031957fe5b6001600160a01b03909216602092830291909101909101526000881561033f5782610341565b815b6001546040805163095ea7b360e01b81526001600160a01b0392831660048201526024810188905290519293509083169163095ea7b3916044808201926020929091908290030181600087803b15801561039a57600080fd5b505af11580156103ae573d6000803e3d6000fd5b505050506040513d60208110156103c457600080fd5b5050600080546103de906001600160a01b03168688610982565b6000815181106103ea57fe5b602002602001015190506000600160009054906101000a90046001600160a01b03166001600160a01b03166338ed173987848a33620d2f006040518663ffffffff1660e01b81526004018086815260200185815260200180602001846001600160a01b03168152602001838152602001828103825285818151815260200191508051906020019060200280838360005b8381101561049257818101518382015260200161047a565b505050509050019650505050505050600060405180830381600087803b1580156104bb57600080fd5b505af11580156104cf573d6000803e3d6000fd5b505050506040513d6000823e601f3d908101601f1916820160405260208110156104f857600080fd5b810190808051604051939291908464010000000082111561051857600080fd5b90830190602082018581111561052d57600080fd5b825186602082028301116401000000008211171561054a57600080fd5b82525081516020918201928201910280838360005b8381101561057757818101518382015260200161055f565b5050505090500160405250505060018151811061059057fe5b6020026020010151905060008b6000146105aa57846105ac565b855b9050806001600160a01b031663a9059cbb33856040518363ffffffff1660e01b815260040180836001600160a01b0316815260200182815260200192505050602060405180830381600087803b15801561060557600080fd5b505af1158015610619573d6000803e3d6000fd5b505050506040513d602081101561062f57600080fd5b50506040805163a9059cbb60e01b8152326004820152848403602482015290516001600160a01b0383169163a9059cbb9160448083019260209291908290030181600087803b15801561068157600080fd5b505af1158015610695573d6000803e3d6000fd5b505050506040513d60208110156106ab57600080fd5b505050505050505050505050505050565b600080546040805163e6a4390560e01b81526001600160a01b03888116600483015287811660248301529151919092169163e6a43905916044808301926020929190829003018186803b15801561071257600080fd5b505afa158015610726573d6000803e3d6000fd5b505050506040513d602081101561073c57600080fd5b505190506001600160a01b03811661079b576040805162461bcd60e51b815260206004820152601860248201527f5468697320706f6f6c20646f6573206e6f742065786973740000000000000000604482015290519081900360640190fd5b806001600160a01b031663022c0d9f848430604051806040016040528060098152602001686e6f7420656d70747960b81b8152506040518563ffffffff1660e01b815260040180858152602001848152602001836001600160a01b0316815260200180602001828103825283818151815260200191508051906020019080838360005b8381101561083657818101518382015260200161081e565b50505050905090810190601f1680156108635780820380516001836020036101000a031916815260200191505b5095505050505050600060405180830381600087803b15801561088557600080fd5b505af1158015610899573d6000803e3d6000fd5b505050505050505050565b6000546001600160a01b031681565b6001546001600160a01b031681565b60008060006108d18585610b03565b604080516bffffffffffffffffffffffff19606094851b811660208084019190915293851b81166034830152825160288184030181526048830184528051908501206001600160f81b031960688401529a90941b9093166069840152607d8301989098527f150b4ac6b908c76f4d28c378f9d050600e012455d0383ed35598e31688ee2e7b609d808401919091528851808403909101815260bd909201909752805196019590952095945050505050565b60606002825110156109db576040805162461bcd60e51b815260206004820152601c60248201527f446578537761704c6962726172793a20494e56414c49445f5041544800000000604482015290519081900360640190fd5b815167ffffffffffffffff811180156109f357600080fd5b50604051908082528060200260200182016040528015610a1d578160200160208202803683370190505b5090508281600183510381518110610a3157fe5b60209081029190910101528151600019015b8015610afb57600080610a8087866001860381518110610a5f57fe5b6020026020010151878681518110610a7357fe5b6020026020010151610be1565b91509150610ad6848481518110610a9357fe5b60200260200101518383610ad18b8a60018a0381518110610ab057fe5b60200260200101518b8a81518110610ac457fe5b6020026020010151610caf565b610d3d565b846001850381518110610ae557fe5b6020908102919091010152505060001901610a43565b509392505050565b600080826001600160a01b0316846001600160a01b03161415610b575760405162461bcd60e51b8152600401808060200182810382526023815260200180610f526023913960400191505060405180910390fd5b826001600160a01b0316846001600160a01b031610610b77578284610b7a565b83835b90925090506001600160a01b038216610bda576040805162461bcd60e51b815260206004820152601c60248201527f446578537761704c6962726172793a205a45524f5f4144445245535300000000604482015290519081900360640190fd5b9250929050565b6000806000610bf08585610b03565b509050600080610c018888886108c2565b6001600160a01b0316630902f1ac6040518163ffffffff1660e01b815260040160606040518083038186803b158015610c3957600080fd5b505afa158015610c4d573d6000803e3d6000fd5b505050506040513d6060811015610c6357600080fd5b5080516020909101516dffffffffffffffffffffffffffff91821693501690506001600160a01b0387811690841614610c9d578082610ca0565b81815b90999098509650505050505050565b600080610cbc8484610b03565b509050610cca8585856108c2565b6001600160a01b03166354cf2aeb6040518163ffffffff1660e01b815260040160206040518083038186803b158015610d0257600080fd5b505afa158015610d16573d6000803e3d6000fd5b505050506040513d6020811015610d2c57600080fd5b505163ffffffff1695945050505050565b6000808511610d7d5760405162461bcd60e51b815260040180806020018281038252602a815260200180610f28602a913960400191505060405180910390fd5b600084118015610d8d5750600083115b610dc85760405162461bcd60e51b8152600401808060200182810382526026815260200180610f756026913960400191505060405180910390fd5b6000610de0612710610dda8789610e1f565b90610e1f565b90506000610dfd610df361271086610e88565b610dda878a610e88565b9050610e146001828481610e0d57fe5b0490610ed8565b979650505050505050565b6000811580610e3a57505080820282828281610e3757fe5b04145b610e82576040805162461bcd60e51b815260206004820152601460248201527364732d6d6174682d6d756c2d6f766572666c6f7760601b604482015290519081900360640190fd5b92915050565b80820382811115610e82576040805162461bcd60e51b815260206004820152601560248201527464732d6d6174682d7375622d756e646572666c6f7760581b604482015290519081900360640190fd5b80820182811015610e82576040805162461bcd60e51b815260206004820152601460248201527364732d6d6174682d6164642d6f766572666c6f7760601b604482015290519081900360640190fdfe446578537761704c6962726172793a20494e53554646494349454e545f4f55545055545f414d4f554e54446578537761704c6962726172793a204944454e544943414c5f414444524553534553446578537761704c6962726172793a20494e53554646494349454e545f4c4951554944495459a264697066735822122068bad4c52ae687bd3f833eee46cd3c608411e24b21af706062544164a1c47b2464736f6c634300060c0033",
  "immutableReferences": {},
  "source": "pragma solidity ^0.6.6  ;\r\n\r\nimport './libraries/DexSwapLibrary.sol';\r\nimport './interfaces/IDexSwapRouter.sol';\r\nimport './interfaces/IDexSwapPair.sol';\r\nimport './interfaces/IDexSwapFactory.sol';\r\nimport './interfaces/IERC20.sol';\r\n\r\ncontract DexSwapArbitrage {\r\n  address public factory;\r\n  uint constant deadline = 10 days;\r\n  IDexSwapRouter public dexSwapRoute;\r\n\r\n  constructor(address _factory, address _dexSwapRoute) public {\r\n    factory = _factory;  \r\n    dexSwapRoute = IDexSwapRouter(_dexSwapRoute);\r\n  }\r\n\r\n  function startDexSwapArbitrage(\r\n    address token0, \r\n    address token1, \r\n    uint amount0, \r\n    uint amount1\r\n  ) external {\r\n    address pairAddress = IDexSwapFactory(factory).getPair(token0, token1);\r\n    require(pairAddress != address(0), 'This pool does not exist');\r\n    IDexSwapPair(pairAddress).swap(\r\n      amount0, \r\n      amount1, \r\n      address(this), \r\n      bytes('not empty')\r\n    );\r\n  }\r\n\r\n  function uniswapV2Call(\r\n    address _sender, \r\n    uint _amount0, \r\n    uint _amount1, \r\n    bytes calldata _data\r\n  ) external {\r\n    address[] memory path = new address[](2);\r\n    uint amountToken = _amount0 == 0 ? _amount1 : _amount0;\r\n    address token0 = IDexSwapPair(msg.sender).token0();\r\n    address token1 = IDexSwapPair(msg.sender).token1();\r\n\r\n    require(\r\n      msg.sender == DexSwapLibrary.pairFor(factory, token0, token1), \r\n      'Unauthorized'\r\n    ); \r\n    require(_amount0 == 0 || _amount1 == 0);\r\n\r\n    path[0] = _amount0 == 0 ? token1 : token0;\r\n    path[1] = _amount0 == 0 ? token0 : token1;\r\n\r\n    IERC20 token = IERC20(_amount0 == 0 ? token1 : token0);\r\n    \r\n    token.approve(address(dexSwapRoute), amountToken);\r\n\r\n    uint amountRequired = DexSwapLibrary.getAmountsIn(\r\n      factory, \r\n      amountToken, \r\n      path\r\n    )[0];\r\n    uint amountReceived = dexSwapRoute.swapExactTokensForTokens(\r\n      amountToken, \r\n      amountRequired, \r\n      path, \r\n      msg.sender, \r\n      deadline\r\n    )[1];\r\n\r\n    IERC20 otherToken = IERC20(_amount0 == 0 ? token0 : token1);\r\n    otherToken.transfer(msg.sender, amountRequired);\r\n    otherToken.transfer(tx.origin, amountReceived - amountRequired);\r\n  }\r\n}",
  "sourcePath": "/mnt/d/AGIN-WORKS-GITHUB/OPEN-DEFI/agin-dropdisco/router/contracts/DexSwapArbitrage.sol",
  "compiler": {
    "name": "solc",
    "version": "0.6.12+commit.27d51765.Emscripten.clang"
  },
  "schemaVersion": "3.4.1",
  "updatedAt": "2021-09-22T23:45:22.869Z",
  "networkType": "ethereum",
  "devdoc": {
    "kind": "dev",
    "methods": {},
    "version": 1
  },
  "userdoc": {
    "kind": "user",
    "methods": {},
    "version": 1
  }
}