{
  "contractName": "OracleCreator",
  "abi": [
    {
      "anonymous": false,
      "inputs": [
        {
          "indexed": true,
          "internalType": "uint256",
          "name": "_oracleIndex",
          "type": "uint256"
        },
        {
          "indexed": true,
          "internalType": "address",
          "name": "_pair",
          "type": "address"
        },
        {
          "indexed": false,
          "internalType": "uint256",
          "name": "_windowTime",
          "type": "uint256"
        }
      ],
      "name": "OracleCreated",
      "type": "event"
    },
    {
      "inputs": [
        {
          "internalType": "uint256",
          "name": "",
          "type": "uint256"
        }
      ],
      "name": "oracles",
      "outputs": [
        {
          "internalType": "uint256",
          "name": "windowTime",
          "type": "uint256"
        },
        {
          "internalType": "address",
          "name": "token0",
          "type": "address"
        },
        {
          "internalType": "address",
          "name": "token1",
          "type": "address"
        },
        {
          "internalType": "contract IDexSwapPair",
          "name": "pair",
          "type": "address"
        },
        {
          "internalType": "uint32",
          "name": "blockTimestampLast",
          "type": "uint32"
        },
        {
          "internalType": "uint256",
          "name": "price0CumulativeLast",
          "type": "uint256"
        },
        {
          "internalType": "uint256",
          "name": "price1CumulativeLast",
          "type": "uint256"
        },
        {
          "components": [
            {
              "internalType": "uint224",
              "name": "_x",
              "type": "uint224"
            }
          ],
          "internalType": "struct FixedPoint.uq112x112",
          "name": "price0Average",
          "type": "tuple"
        },
        {
          "components": [
            {
              "internalType": "uint224",
              "name": "_x",
              "type": "uint224"
            }
          ],
          "internalType": "struct FixedPoint.uq112x112",
          "name": "price1Average",
          "type": "tuple"
        },
        {
          "internalType": "uint256",
          "name": "observationsCount",
          "type": "uint256"
        },
        {
          "internalType": "address",
          "name": "owner",
          "type": "address"
        }
      ],
      "stateMutability": "view",
      "type": "function"
    },
    {
      "inputs": [],
      "name": "oraclesIndex",
      "outputs": [
        {
          "internalType": "uint256",
          "name": "",
          "type": "uint256"
        }
      ],
      "stateMutability": "view",
      "type": "function"
    },
    {
      "inputs": [
        {
          "internalType": "uint256",
          "name": "windowTime",
          "type": "uint256"
        },
        {
          "internalType": "address",
          "name": "pair",
          "type": "address"
        }
      ],
      "name": "createOracle",
      "outputs": [
        {
          "internalType": "uint256",
          "name": "oracleId",
          "type": "uint256"
        }
      ],
      "stateMutability": "nonpayable",
      "type": "function"
    },
    {
      "inputs": [
        {
          "internalType": "uint256",
          "name": "oracleIndex",
          "type": "uint256"
        }
      ],
      "name": "update",
      "outputs": [],
      "stateMutability": "nonpayable",
      "type": "function"
    },
    {
      "inputs": [
        {
          "internalType": "uint256",
          "name": "oracleIndex",
          "type": "uint256"
        },
        {
          "internalType": "address",
          "name": "token",
          "type": "address"
        },
        {
          "internalType": "uint256",
          "name": "amountIn",
          "type": "uint256"
        }
      ],
      "name": "consult",
      "outputs": [
        {
          "internalType": "uint256",
          "name": "amountOut",
          "type": "uint256"
        }
      ],
      "stateMutability": "view",
      "type": "function"
    },
    {
      "inputs": [
        {
          "internalType": "uint256",
          "name": "oracleIndex",
          "type": "uint256"
        }
      ],
      "name": "isOracleFinalized",
      "outputs": [
        {
          "internalType": "bool",
          "name": "",
          "type": "bool"
        }
      ],
      "stateMutability": "view",
      "type": "function"
    },
    {
      "inputs": [
        {
          "internalType": "uint256",
          "name": "oracleIndex",
          "type": "uint256"
        }
      ],
      "name": "getOracleDetails",
      "outputs": [
        {
          "components": [
            {
              "internalType": "uint256",
              "name": "windowTime",
              "type": "uint256"
            },
            {
              "internalType": "address",
              "name": "token0",
              "type": "address"
            },
            {
              "internalType": "address",
              "name": "token1",
              "type": "address"
            },
            {
              "internalType": "contract IDexSwapPair",
              "name": "pair",
              "type": "address"
            },
            {
              "internalType": "uint32",
              "name": "blockTimestampLast",
              "type": "uint32"
            },
            {
              "internalType": "uint256",
              "name": "price0CumulativeLast",
              "type": "uint256"
            },
            {
              "internalType": "uint256",
              "name": "price1CumulativeLast",
              "type": "uint256"
            },
            {
              "components": [
                {
                  "internalType": "uint224",
                  "name": "_x",
                  "type": "uint224"
                }
              ],
              "internalType": "struct FixedPoint.uq112x112",
              "name": "price0Average",
              "type": "tuple"
            },
            {
              "components": [
                {
                  "internalType": "uint224",
                  "name": "_x",
                  "type": "uint224"
                }
              ],
              "internalType": "struct FixedPoint.uq112x112",
              "name": "price1Average",
              "type": "tuple"
            },
            {
              "internalType": "uint256",
              "name": "observationsCount",
              "type": "uint256"
            },
            {
              "internalType": "address",
              "name": "owner",
              "type": "address"
            }
          ],
          "internalType": "struct OracleCreator.Oracle",
          "name": "",
          "type": "tuple"
        }
      ],
      "stateMutability": "view",
      "type": "function"
    }
  ],
  "bytecode": "0x608060405234801561001057600080fd5b506110fa806100206000396000f3fe608060405234801561001057600080fd5b506004361061007d5760003560e01c80634023282b1161005b5780634023282b146100d35780635b69a7d8146100e657806382ab890a14610110578063c6668d45146101255761007d565b806306649d67146100825780630eb5295f146100ab57806325fa7003146100b3575b600080fd5b610095610090366004610d66565b610145565b6040516100a29190611022565b60405180910390f35b61009561055c565b6100c66100c1366004610d36565b610562565b6040516100a29190610df1565b6100956100e1366004610d95565b61057a565b6100f96100f4366004610d36565b61064e565b6040516100a29b9a9998979695949392919061102b565b61012361011e366004610d36565b6106e2565b005b610138610133366004610d36565b610884565b6040516100a29190610f6a565b6000808290506000816001600160a01b0316630dfe16816040518163ffffffff1660e01b815260040160206040518083038186803b15801561018657600080fd5b505afa15801561019a573d6000803e3d6000fd5b505050506040513d601f19601f820116820180604052508101906101be9190610cbf565b90506000826001600160a01b031663d21220a76040518163ffffffff1660e01b815260040160206040518083038186803b1580156101fb57600080fd5b505afa15801561020f573d6000803e3d6000fd5b505050506040513d601f19601f820116820180604052508101906102339190610cbf565b90506000836001600160a01b0316630902f1ac6040518163ffffffff1660e01b815260040160606040518083038186803b15801561027057600080fd5b505afa158015610284573d6000803e3d6000fd5b505050506040513d601f19601f820116820180604052508101906102a89190610ce2565b92505050604051806101600160405280888152602001846001600160a01b03168152602001836001600160a01b03168152602001856001600160a01b031681526020018263ffffffff168152602001856001600160a01b0316635909c0d56040518163ffffffff1660e01b815260040160206040518083038186803b15801561033057600080fd5b505afa158015610344573d6000803e3d6000fd5b505050506040513d601f19601f820116820180604052508101906103689190610d4e565b8152602001856001600160a01b0316635a3d54936040518163ffffffff1660e01b815260040160206040518083038186803b1580156103a657600080fd5b505afa1580156103ba573d6000803e3d6000fd5b505050506040513d601f19601f820116820180604052508101906103de9190610d4e565b81526040805160208181018352600080835281850192909252825180820184528281528385015260608085018390523360809586015260018054845283835292849020865181559186015182840180546001600160a01b039283166001600160a01b03199182161790915587860151600285018054918416918316919091179055918701516003840180549789015163ffffffff16600160a01b0263ffffffff60a01b1992841698851698909817919091169690961790955560a0860151600483015560c0860151600583015560e0860151516006830180546001600160e01b039283166001600160e01b0319918216179091556101008801515160078501805491909316911617905561012086015160088301556101409095015160099091018054918516919095161790935582548084019093555191965085169086907ffe5474489c150632f13da433a8fbebd5e91fe495940c6776c0b3934f5f636c509061054a908b90611022565b60405180910390a35050505092915050565b60015481565b60009081526020819052604090206008015460021490565b6000838152602081905260408120610590610c13565b60018201546001600160a01b03868116911614156105c95750604080516020810190915260068201546001600160e01b0316815261061e565b60028201546001600160a01b038681169116146106015760405162461bcd60e51b81526004016105f890610e33565b60405180910390fd5b50604080516020810190915260078201546001600160e01b031681525b61063061062b8286610953565b6109b2565b71ffffffffffffffffffffffffffffffffffff169695505050505050565b600060208181529181526040908190208054600182015460028301546003840154600485015460058601548751808a01895260068801546001600160e01b03908116825289519a8b0190995260078801549098168952600887015460099097015495986001600160a01b03958616989486169786851697600160a01b90950463ffffffff169693959294929391929091168b565b600081815260208190526040902060098101546001600160a01b0316331461071c5760405162461bcd60e51b81526004016105f890610dfc565b60028160080154106107405760405162461bcd60e51b81526004016105f890610f25565b60038101546000908190819061075e906001600160a01b03166109b9565b600387015460088801549396509194509250600160a01b900463ffffffff1682039015806107935750845463ffffffff821610155b6107af5760405162461bcd60e51b81526004016105f890610ead565b60405180602001604052808263ffffffff1687600401548703816107cf57fe5b046001600160e01b0390811690915290516006870180546001600160e01b0319169190921617905560408051602081019091526005860154819063ffffffff84169086038161081a57fe5b046001600160e01b0390811690915290516007870180546001600160e01b03191691909216179055506004840192909255600583015560038201805463ffffffff60a01b1916600160a01b63ffffffff909316929092029190911790556008018054600101905550565b61088c610c25565b50600090815260208181526040918290208251610160810184528154815260018201546001600160a01b0390811682850152600283015481168286015260038301548082166060840152600160a01b900463ffffffff166080830152600483015460a0830152600583015460c08301528451808501865260068401546001600160e01b03908116825260e084019190915285519485019095526007830154909416835261010081019290925260088101546101208301526009015490911661014082015290565b61095b610cac565b600082158061098157505082516001600160e01b03168281029083828161097e57fe5b04145b61099d5760405162461bcd60e51b81526004016105f890610e6a565b60408051602081019091529081529392505050565b5160701c90565b60008060006109c6610b8e565b9050836001600160a01b0316635909c0d56040518163ffffffff1660e01b815260040160206040518083038186803b158015610a0157600080fd5b505afa158015610a15573d6000803e3d6000fd5b505050506040513d601f19601f82011682018060405250810190610a399190610d4e565b9250836001600160a01b0316635a3d54936040518163ffffffff1660e01b815260040160206040518083038186803b158015610a7457600080fd5b505afa158015610a88573d6000803e3d6000fd5b505050506040513d601f19601f82011682018060405250810190610aac9190610d4e565b91506000806000866001600160a01b0316630902f1ac6040518163ffffffff1660e01b815260040160606040518083038186803b158015610aec57600080fd5b505afa158015610b00573d6000803e3d6000fd5b505050506040513d601f19601f82011682018060405250810190610b249190610ce2565b9250925092508363ffffffff168163ffffffff1614610b845780840363ffffffff8116610b518486610b98565b516001600160e01b031602969096019563ffffffff8116610b728585610b98565b516001600160e01b0316029590950194505b5050509193909250565b63ffffffff421690565b610ba0610c13565b6000826001600160701b031611610bc95760405162461bcd60e51b81526004016105f890610eee565b6040805160208101909152806001600160701b0384166dffffffffffffffffffffffffffff60701b607087901b1681610bfe57fe5b046001600160e01b0316815250905092915050565b60408051602081019091526000815290565b6040518061016001604052806000815260200160006001600160a01b0316815260200160006001600160a01b0316815260200160006001600160a01b03168152602001600063ffffffff1681526020016000815260200160008152602001610c8b610c13565b8152602001610c98610c13565b815260006020820181905260409091015290565b6040518060200160405280600081525090565b600060208284031215610cd0578081fd5b8151610cdb81611097565b9392505050565b600080600060608486031215610cf6578182fd5b8351610d01816110af565b6020850151909350610d12816110af565b604085015190925063ffffffff81168114610d2b578182fd5b809150509250925092565b600060208284031215610d47578081fd5b5035919050565b600060208284031215610d5f578081fd5b5051919050565b60008060408385031215610d78578182fd5b823591506020830135610d8a81611097565b809150509250929050565b600080600060608486031215610da9578283fd5b833592506020840135610dbb81611097565b929592945050506040919091013590565b6001600160a01b03169052565b516001600160e01b03169052565b63ffffffff169052565b901515815260200190565b6020808252601f908201527f4f7261636c6543726561746f723a2043414c4c45525f4e4f545f4f574e455200604082015260600190565b6020808252601c908201527f4f7261636c6543726561746f723a20494e56414c49445f544f4b454e00000000604082015260600190565b60208082526023908201527f4669786564506f696e743a204d554c5449504c49434154494f4e5f4f564552466040820152624c4f5760e81b606082015260800190565b60208082526021908201527f4f7261636c6543726561746f723a20504552494f445f4e4f545f454c415053456040820152601160fa1b606082015260800190565b60208082526017908201527f4669786564506f696e743a204449565f42595f5a45524f000000000000000000604082015260600190565b60208082526025908201527f4f7261636c6543726561746f723a2046494e49534845445f4f4245525345525660408201526420aa24a7a760d91b606082015260800190565b81518152602080830151610160830191610f8690840182610dcc565b506040830151610f996040840182610dcc565b506060830151610fac6060840182610dcc565b506080830151610fbf6080840182610de7565b5060a083015160a083015260c083015160c083015260e0830151610fe660e0840182610dd9565b5061010080840151610ffa82850182610dd9565b505061012083810151908301526101408084015161101a82850182610dcc565b505092915050565b90815260200190565b9a8b526001600160a01b03998a1660208c015297891660408b015295881660608a015263ffffffff94909416608089015260a088019290925260c0870152516001600160e01b0390811660e0870152905116610100850152610120840152166101408201526101600190565b6001600160a01b03811681146110ac57600080fd5b50565b6001600160701b03811681146110ac57600080fdfea264697066735822122015443bdbcddcc7603d312a4475c19bca6866e4ddcdf65c1b2bcea9e86c50c13064736f6c634300060c0033",
  "immutableReferences": {},
  "source": "// SPDX-License-Identifier: GPL-3.0\npragma solidity ^0.6.6  ;\npragma experimental ABIEncoderV2;\n\nimport './../libraries/TransferHelper.sol';\nimport './../libraries/DexSwapOracleLibrary.sol';\nimport './../libraries/DexSwapLibrary.sol';\nimport './../libraries/SafeMath.sol';\n\ncontract OracleCreator {\n    using FixedPoint for *;\n    using SafeMath for uint256;\n\n    event OracleCreated(\n        uint256 indexed _oracleIndex,\n        address indexed _pair,\n        uint256 _windowTime\n    );\n\n    struct Oracle{\n        uint256 windowTime;\n        address token0;\n        address token1;\n        IDexSwapPair pair;\n        uint32 blockTimestampLast;\n        uint256 price0CumulativeLast;\n        uint256 price1CumulativeLast;\n        FixedPoint.uq112x112 price0Average;\n        FixedPoint.uq112x112 price1Average;\n        uint256 observationsCount;\n        address owner;\n    }\n\n    mapping(uint256 => Oracle) public oracles;\n    uint256 public oraclesIndex;\n\n    function createOracle(\n        uint256 windowTime,\n        address pair\n    ) public returns (uint256 oracleId) {\n        IDexSwapPair sourcePair = IDexSwapPair(pair);\n        address token0 = sourcePair.token0();\n        address token1 = sourcePair.token1();\n        (,, uint32 blockTimestampLast) =  sourcePair.getReserves();\n\n        oracles[oraclesIndex] = Oracle({\n            windowTime: windowTime,\n            token0: token0,\n            token1: token1,\n            pair: sourcePair,\n            blockTimestampLast: blockTimestampLast,\n            price0CumulativeLast: sourcePair.price0CumulativeLast(),\n            price1CumulativeLast: sourcePair.price1CumulativeLast(),\n            price0Average: FixedPoint.uq112x112(0),\n            price1Average: FixedPoint.uq112x112(0),\n            observationsCount: 0,\n            owner: msg.sender\n        });\n        oracleId = oraclesIndex;\n        oraclesIndex++;\n        emit OracleCreated(oracleId, address(sourcePair), windowTime);\n    }\n\n    function update(uint256 oracleIndex) public {\n        Oracle storage oracle = oracles[oracleIndex];\n        require(msg.sender == oracle.owner, 'OracleCreator: CALLER_NOT_OWNER');\n        require(oracle.observationsCount < 2, 'OracleCreator: FINISHED_OBERSERVATION');\n        (uint price0Cumulative, uint price1Cumulative, uint32 blockTimestamp) =\n            DexSwapOracleLibrary.currentCumulativePrices(address(oracle.pair));\n        uint32 timeElapsed = blockTimestamp - oracle.blockTimestampLast; // overflow is desired\n\n        // first update can be executed immediately. Ensure that at least one full period has passed since the first update \n        require(\n          oracle.observationsCount == 0 || timeElapsed >= oracle.windowTime, \n          'OracleCreator: PERIOD_NOT_ELAPSED'\n        );\n\n        // overflow is desired, casting never truncates\n        // cumulative price is in (uq112x112 price * seconds) units so we simply wrap it after division by time elapsed\n        oracle.price0Average = FixedPoint.uq112x112(\n          uint224((price0Cumulative - oracle.price0CumulativeLast) / timeElapsed)\n        );\n        oracle.price1Average = FixedPoint.uq112x112(\n          uint224((price1Cumulative - oracle.price1CumulativeLast) / timeElapsed)\n        );\n\n        oracle.price0CumulativeLast = price0Cumulative;\n        oracle.price1CumulativeLast = price1Cumulative;\n        oracle.blockTimestampLast = blockTimestamp;\n        oracle.observationsCount++;\n    }\n\n    // note this will always return 0 before update has been called successfully for the first time.\n    function consult(uint256 oracleIndex, address token, uint256 amountIn) external view returns (uint256 amountOut) {\n        Oracle storage oracle = oracles[oracleIndex];\n        FixedPoint.uq112x112 memory avg;\n        if (token == oracle.token0) { \n          avg = oracle.price0Average;\n        } else {\n          require(token == oracle.token1, 'OracleCreator: INVALID_TOKEN'); \n          avg = oracle.price1Average;\n        }\n        amountOut = avg.mul(amountIn).decode144();\n    }\n\n    function isOracleFinalized(uint256 oracleIndex) external view returns (bool){\n        return oracles[oracleIndex].observationsCount == 2;\n    }\n\n    function getOracleDetails(uint256 oracleIndex) external view returns (Oracle memory) {\n      return oracles[oracleIndex];\n    }\n\n}",
  "sourcePath": "/mnt/d/AGIN-WORKS-GITHUB/OPEN-DEFI/agin-dropdisco/router/contracts/examples/OracleCreator.sol",
  "compiler": {
    "name": "solc",
    "version": "0.6.12+commit.27d51765.Emscripten.clang"
  },
  "schemaVersion": "3.4.1",
  "updatedAt": "2021-09-22T23:45:22.846Z",
  "networkType": "ethereum",
  "devdoc": {
    "kind": "dev",
    "methods": {},
    "version": 1
  },
  "userdoc": {
    "kind": "user",
    "methods": {},
    "version": 1
  }
}